:030000000208B43F
:0C08B400787FE4F6D8FD7581200208FB77
:05098400010804C100A0
:1008000043890112096830983212097CBF4104C241
:10081000008028BF4204D2008021EFFD3395E0FC28
:10082000C3ED9431EC648094804010D3ED9434ECAB
:10083000648094805005EF24D0F508200006D28013
:10084000C2818004C280D281AF08EF3395E0FEEF11
:1008500064014E700ED2827F01FE120940C2827F77
:10086000038034AF08EF3395E0FEEF64024E700E64
:10087000D2827F02FE120940C2827F028019AF0835
:10088000EF3395E0FEEF64034E7014D2827F03FED7
:10089000120940C2827F017E00120940020806AFA1
:1008A00008EF3395E0FEEF64044E6003020806D2C1
:0408B00082020806B2
:10094000E4FDEDFB3395E0FAC3EB9FEE6480F8EA3B
:100950006480985012758CEEE4F58AD28C308DFD4F
:07096000C28CC28D0D80DB8B
:01096700226D
:0C096800759850438920758DFDD28E22B9
:080974008F993099FDC2992210
:08097C003098FDC298AF9922EA
:1008C000020800E493A3F8E493A34003F68001F246
:1008D00008DFF48029E493A3F85407240CC8C33339
:1008E000C4540F4420C8834004F456800146F6DF08
:1008F000E4800B0102040810204080900984E47E0B
:10090000019360BCA3FF543F30E509541FFEE493FC
:10091000A360010ECF54C025E060A840B8E493A3C3
:10092000FAE493A3F8E493A3C8C582C8CAC583CAEE
:10093000F0A3C8C582C8CAC583CADFE9DEE780BEA6
:01098900006D
:00000001FF
