:03000000020800F3
:0C080000787FE4F6D8FD758120020847DF
:05092700010800C10001
:0300030002088C64
:10088C00C0E0C0D075D000C006C007AF08EF3395EC
:10089C00E0FEC3EF9405EE6480948050020508AF2F
:1008AC0008EF3395E0FEEF64054E7003750801E523
:0E08BC00082430F509D007D006D0D0D0E032A5
:030013000208FEE2
:0D08FE00B200200004750941327509423234
:1008EA0012090BD2AFD2A8D2AAD288D28AAF0912E1
:0408FA00091780F961
:1008CA00E4FDFCC3ED9FEC9E5015E4FBFA0BBB0064
:0F08DA00010ABA03F8BBE8F50DBD00010C80E47C
:0108E90022EC
:0C090B00759850438920758DFDD28E2216
:080917008F993099FDC299226D
:08091F003098FDC298AF992247
:10080C000208EAE493A3F8E493A34003F68001F210
:10081C0008DFF48029E493A3F85407240CC8C333ED
:10082C00C4540F4420C8834004F456800146F6DFBC
:10083C00E4800B0102040810204080900927E47E1C
:10084C00019360BCA3FF543F30E509541FFEE493B1
:10085C00A360010ECF54C025E060A840B8E493A378
:10086C00FAE493A3F8E493A3C8C582C8CAC583CAA3
:10087C00F0A3C8C582C8CAC583CADFE9DEE780BE5B
:01092C0000CA
:00000001FF
